:100000000FC01EC01DC01CC01BC01AC019C018C024
:1000100017C016C015C014C013C023C011C010C033
:1000200011271FBFCFE5D0E0DEBFCDBF20E0A0E4A9
:10003000B0E001C01D93A134B207E1F739D096C0FA
:10004000DFCF58ED5CBF42E047BF5CBF16BF1AB9B7
:1000500055E059B94EB948E94DB946E04CB97894E4
:1000600008951F930F930FB70F9310E04F935F9373
:10007000EF93FF93E0E4F0E051E04EB144232CF421
:1000800048B14236D1F75083F8CFFF91EF915F919D
:100090004F910F910FBF0F911F9118954EB145FFD2
:1000A000FDCF88B9089542E04BBB44E84DBB0895AD
:1000B00084E090E0C6DFF7DF0E9AE0E4F0E04081F4
:1000C0004423A1F110838FEFE9DF8FEFE7DF81E0B9
:1000D000E5DF81E0E3DF80E8E1DF8FEFDFDF88E469
:1000E000DDDF87E5DBDF84E5D9DF8AE3D7DF8DE479
:1000F000D5DF85E5D3DF83E5D1DF83E4CFDF8CE493
:10010000CDDF85E4CBDF83E5C9DF83E5C7DF8BE3A4
:10011000C5DF8FEFC3DF8FEFC1DF81E0BFDF81E09D
:10012000BDDF81E8BBDF8FEFB9DFC7CF169AEE9A4C
:10013000EE99FECF49B38AB390E0982F8827C82F55
:10014000D92FC40FD11F8C2F9D2F880F892F881F67
:10015000990B91958068A2DF8C2F8F779FDF16987F
:1001600048EC50E04150510BE9F7A7CFF894FFCF8E
:00000001FF
