S0130000417474696E7931303445582E7372656366
S11300000FC016C015C014C013C012C011C010C058
S11300100FC00EC00DC00CC00BC00AC009C008C080
S113002011271FBFCFE5D0E0DEBFCDBF18D02EC053
S1130030E7CF48ED4CBF16BF9AB989B942E04EB933
S113004048E14DB94EE04CB908954EB145FFFDCF9E
S113005088B9089542E04BBB44E84DBB089584E061
S113006090E0E7DFF7DFC0E048E252E04150504063
S1130070E9F700C00000CF5F8C2F881F8827881FF6
S11300808068E3DF8C2F8F77E0DFEECFF894FFCF2B
S9030000FC
